:02000002B0004C
:1040000000400B009A5B0B00000006000C0005024C
:084010000401B41400000000DB
:0440180090580B00B1
:1040200081F0004102E000BF83F0004330B54FEA69
:1040300041044FEA430594EA050F08BF90EA020FD6
:104040001FBF54EA000C55EA020C7FEA645C7FEA69
:10405000655C00F0E2804FEA5454D4EB5555B8BF8C
:104060006D420CDD2C4480EA020281EA030382EAFD
:10407000000083EA010180EA020281EA0303362D8F
:1040800088BF30BD11F0004F4FEA01314FF4801C62
:104090004CEA113102D0404261EB410113F0004F74
:1040A0004FEA03334CEA133302D0524263EB43032B
:1040B00094EA050F00F0A780A4F10104D5F1200EC9
:1040C0000DDB02FA0EFC22FA05F2801841F1000124
:1040D00003FA0EF2801843FA05F359410EE0A5F1F8
:1040E00020050EF1200E012A03FA0EFC28BF4CF029
:1040F000020C43FA05F3C01851EBE37101F00045DF
:1041000007D54FF0000EDCF1000C7EEB00006EEBEB
:104110000101B1F5801F1BD3B1F5001F0CD3490875
:104120005FEA30004FEA3C0C04F101044FEA4452CC
:1041300012F5800F80F09A80BCF1004F08BF5FEA53
:10414000500C50F1000041EB045141EA050130BD33
:104150005FEA4C0C404141EB0101013C28BFB1F545
:10416000801FE9D291F0000F04BF01460020B1FA90
:1041700081F308BF2033A3F10B03B3F120020CDA63
:104180000C3208DD02F1140CC2F10C0201FA0CF041
:1041900021FA02F10CE002F11402D8BFC2F1200CA6
:1041A00001FA02F120FA0CFCDCBF41EA0C0190405C
:1041B000E41AA2BF01EB0451294330BD6FEA0404A5
:1041C0001F3C1CDA0C340EDC04F11404C4F1200290
:1041D00020FA04F001FA02F340EA030021FA04F3A2
:1041E00045EA030130BDC4F10C04C4F1200220FAF9
:1041F00002F001FA04F340EA0300294630BD21FA37
:1042000004F0294630BD94F0000F83F4801306BFFC
:1042100081F480110134013D4EE77FEA645C18BFF0
:104220007FEA655C29D094EA050F08BF90EA020F87
:1042300005D054EA000C04BF1946104630BD91EA7F
:10424000030F1EBF0021002030BD5FEA545C05D182
:104250004000494128BF41F0004130BD14F58004C1
:104260003CBF01F5801130BD01F0004545F0FE4135
:1042700041F470014FF0000030BD7FEA645C1ABF6A
:10428000194610467FEA655C1CBF0B46024650EAA1
:10429000013406BF52EA033591EA030F41F40021CD
:1042A00030BD00BF90F0000F04BF0021704730B553
:1042B0004FF4806404F132044FF000054FF0000128
:1042C00050E700BF90F0000F04BF0021704730B5E9
:1042D0004FF4806404F1320410F0004548BF4042BE
:1042E0004FF000013EE700BF42004FEAE2014FEA13
:1042F00031014FEA02701FBF12F07F4393F07F4FEE
:1043000081F06051704732F07F4208BF704793F0F0
:104310007F4F04BF41F40021704730B54FF4607403
:1043200001F0004521F000411CE700BF50EA010206
:1043300008BF704730B54FF000050AE050EA0102AF
:1043400008BF704730B511F0004502D5404261EB1F
:1043500041014FF4806404F132045FEA915C3FF460
:10436000D8AE4FF003025FEADC0C18BF03325FEAFD
:10437000DC0C18BF033202EBDC02C2F1200300FAAE
:1043800003FC20FA02F001FA03FE40EA0E0021FAD3
:1043900002F11444BDE600BF70B54FF0FF0C4CF4C1
:1043A000E06C1CEA11541DBF1CEA135594EA0C0F73
:1043B00095EA0C0F00F0DEF82C4481EA030621EAAE
:1043C0004C5123EA4C5350EA013518BF52EA0335E9
:1043D00041F4801143F4801338D0A0FB02CE4FF09B
:1043E0000005E1FB02E506F00042E0FB03E54FF0CB
:1043F0000006E1FB03569CF0000F18BF4EF0010EC3
:10440000A4F1FF04B6F5007F64F5407404D25FEABE
:104410004E0E6D4146EB060642EAC62141EA555171
:104420004FEAC52040EA5E504FEACE2EB4F1FD0CB3
:1044300088BFBCF5E06F1ED8BEF1004F08BF5FEA31
:10444000500E50F1000041EB045170BD06F00046E3
:1044500046EA010140EA020081EA0301B4EB5C0490
:10446000C2BFD4EB0C0541EA045170BD41F4801188
:104470004FF0000E013C00F3AB8014F1360FDEBFAD
:10448000002001F0004170BDC4F10004203C35DA89
:104490000C341BDC04F11404C4F1200500FA05F30C
:1044A00020FA04F001FA05F240EA020001F00042AD
:1044B00021F0004110EBD37021FA04F642EB060123
:1044C0005EEA430E08BF20EAD37070BDC4F10C044D
:1044D000C4F1200500FA04F320FA05F001FA04F211
:1044E00040EA020001F0004110EBD37041F10001FD
:1044F0005EEA430E08BF20EAD37070BDC4F1200508
:1045000000FA05F24EEA020E20FA04F301FA05F26F
:1045100043EA020321FA04F001F0004121FA04F217
:1045200020EA020000EBD3705EEA430E08BF20EAE7
:10453000D37070BD94F0000F0FD101F00046400021
:1045400041EB010111F4801F08BF013CF7D041EAA3
:10455000060195F0000F18BF704703F000465200A7
:1045600043EB030313F4801F08BF013DF7D043EA78
:104570000603704794EA0C0F0CEA135518BF95EA2E
:104580000C0F0CD050EA410618BF52EA4306D1D1B5
:1045900081EA030101F000414FF0000070BD50EAD4
:1045A000410606BF1046194652EA430619D094EA5E
:1045B0000C0F02D150EA013613D195EA0C0F05D148
:1045C00052EA03361CBF104619460AD181EA03019C
:1045D00001F0004141F0FE4141F470014FF0000054
:1045E00070BD41F0FE4141F4780170BD70B54FF0EF
:1045F000FF0C4CF4E06C1CEA11541DBF1CEA13556F
:1046000094EA0C0F95EA0C0F00F0A7F8A4EB050450
:1046100081EA030E52EA03354FEA013100F0888047
:104620004FEA03334FF0805545EA131343EA126310
:104630004FEA022245EA111545EA10654FEA0026C5
:104640000EF000419D4208BF964244F1FD0404F57E
:10465000407402D25B084FEA3202B61A65EB0305DA
:104660005B084FEA32024FF480104FF4002CB6EB97
:10467000020E75EB030E22BFB61A754640EA0C0017
:104680005B084FEA3202B6EB020E75EB030E22BF57
:10469000B61A754640EA5C005B084FEA3202B6EB98
:1046A000020E75EB030E22BFB61A754640EA9C0057
:1046B0005B084FEA3202B6EB020E75EB030E22BF27
:1046C000B61A754640EADC0055EA060E18D04FEAE5
:1046D000051545EA16754FEA06164FEAC30343EA85
:1046E00052734FEAC2025FEA1C1CC0D111F4801F52
:1046F0000BD141EA00014FF000004FF0004CB6E74B
:1047000011F4801F04BF01430020B4F1FD0C88BFE9
:10471000BCF5E06F3FF6AFAEB5EB030C04BFB6EBF4
:10472000020C5FEA500C50F1000041EB045170BDE7
:104730000EF0004E4EEA113114EB5C04C2BFD4EB14
:104740000C0541EA045170BD41F480114FF0000E98
:10475000013C90E645EA060E8DE60CEA135594EA14
:104760000C0F08BF95EA0C0F3FF43BAF94EA0C0F17
:104770000AD150EA01347FF434AF95EA0C0F7FF48C
:1047800025AF104619462CE795EA0C0F06D152EAE0
:1047900003353FF4FDAE1046194622E750EA4106C4
:1047A00018BF52EA43067FF4C5AE50EA41047FF4D5
:1047B0000DAF52EA43057FF4EBAE12E74FEA410238
:1047C00012F5001215D211D56FF47873B3EB625263
:1047D00012D94FEAC12343F0004343EA505311F08A
:1047E000004F23FA02F018BF404270474FF000001C
:1047F000704750EA013005D111F0004008BF6FF05A
:10480000004070474FF00000704700BF034613F8A8
:10481000012B002AFBD1181A0138704709480A49B0
:10482000884208B505D0094A824202D0121A00F027
:1048300085FF0748074A0021121A00F08DFF014842
:1048400008BD00BF28E60320F45A0B00A0E60320B1
:10485000A0E60320F0E7032070B5074E074C00F0F8
:1048600091FBA41BA4080025AC4200D170BD56F8F2
:10487000043B98470135F7E7AC5A0B00D05A0B00C0
:1048800000F013B808B500F027F8BDE8084000F0C4
:1048900031BB00F029BA00F02FBA0078B0FA80F0EE
:1048A0004009704701230370704708B501210720B4
:1048B00000F05CFE0121062000F058FE01210320DB
:1048C00000F054FE0021082000F050FEBDE8084032
:1048D00000210E2000F04ABE38B5082000F057FE37
:1048E0001D4D1E4B38B301221A700E2000F062FEDF
:1048F00007EE900A1A4B1B4C1860F8EEE77A2D6809
:1049000017EE900AFFF7F0FC11A3D3E90023FFF79D
:1049100043FDFFF753FF44F825000720216800F00E
:1049200060FE6168062000F05CFEA1680320BDE81F
:10493000384000F056BE1A78002AD6D02968187080
:104940004A1C022908BF02462A60CEE7AFF3008066
:1049500020FEE11FFEE1AF3FB0E60320ACE60320FE
:10496000B4E6032028E6032010B5074B074A9A60F7
:104970000024C3E90044032000F02AF92146012065
:10498000BDE8104000F02CB9A0E603200000FFFFB6
:1049900008B5024B1B689B68019308BD68020300C1
:1049A00008B5024B1B68DB68019308BD6802030071
:1049B00008B5024B1B685B68019308BD2C0203001D
:1049C00008B5024B1B689B68019308BD2C020300CD
:1049D00008B5024B1B68DB68019308BD2C0203007D
:1049E00008B5024B1B685B69019308BD2C020300EC
:1049F00008B5024B1B689B6A019308BD2C0203009B
:104A000008B5024B1B681B6B019308BD2C02030009
:104A100008B5024B1B689B6F019308BD2C02030075
:104A200008B5024B1B685B68019308BD18020300C0
:104A300008B5024B1B685B69019308BD18020300AF
:104A400008B5024B1B685B6C019308BD480203006C
:104A500008B5024B1B685B69019308BD6402030043
:104A600008B5024B1B68DB68019308BD3C020300DC
:104A700008B5024B1B681B69019308BD3C0203008B
:104A800008B5024B1B685B69019308BD3C0203003B
:104A900008B5024B1B689B69019308BD3C020300EB
:104AA00008B5024B1B68DB69019308BD3C0203009B
:104AB00008B5024B1B681B6A019308BD3C0203004A
:104AC00008B5024B1B689B6A019308BD3C020300BA
:104AD00008B5024B1B681B6C019308BD3C02030028
:104AE00008B5024B1B681B6A019308BD280203002E
:104AF00008B5024B1B685B6A019308BD28020300DE
:104B000008B5024B1B689B6A019308BD280203008D
:104B100008B5024B1B68DB6A019308BD280203003D
:104B200008B5024B1B681B6B019308BD28020300EC
:104B300008B5024B1B685B6B019308BD280203009C
:104B400008B5024B1B681B6C019308BD28020300CB
:104B500008B5024B1B68DB69019308BD30020300F6
:104B600008B5024B1B681B6A019308BD30020300A5
:104B700008B5024B1B681B68019308BD4C0203007B
:104B800008B5024B1B681B69019308BD4C0203006A
:104B900008B5024B1B685B69019308BD4C0203001A
:104BA00008B5024B1B689B69019308BD4C020300CA
:104BB00008B5024B1B68DB69019308BD4C0203007A
:104BC00008B5024B1B681B6A019308BD4C02030029
:104BD00008B5024B1B685B68019308BD2002030007
:104BE00008B5024B1B68DB6A019308BD2002030075
:104BF00008B5034B1B68D3F88830019308BD00004B
:104C00002002030008B5034B1B68D3F894300193CE
:104C100008BD00002002030008B5024B1B685B685A
:104C2000019308BD4002030008B5024B1B689B6856
:104C3000019308BD4002030008B5024B1B68DB6806
:104C4000019308BD4002030008B5024B1B681B69B5
:104C5000019308BD4002030008B5024B1B685B6965
:104C6000019308BD4002030008B5024B1B689B6915
:104C7000019308BD4002030008B5024B1B68DB69C5
:104C8000019308BD4002030008B5024B1B681B6A74
:104C9000019308BD4002030008B5024B1B681B6B63
:104CA000019308BD4002030008B5024B1B685B6B13
:104CB000019308BD4002030008B5024B1B681B6C42
:104CC000019308BD4002030008B5024B1B685B6CF2
:104CD000019308BD4002030008B5024B1B68DB6B63
:104CE000019308BD4402030008B5024B1B681B6812
:104CF000019308BD1C02030008B5024B1B685B68EA
:104D0000019308BD1C02030008B5024B1B681B6C15
:104D1000019308BD1C02030008B5024B1B685B6CC5
:104D2000019308BD1C020300002240681146FFF7F2
:104D3000ABBF002240681146FFF7B6BF40680022B3
:104D4000FFF7AABF4068002281F00101FFF794BF7E
:104D5000002340681A461946FFF786BF00234068C3
:104D60001A461946FFF778BF002240681146FFF740
:104D70006BBF002240681146FFF756BF4068002213
:104D80000221FFF759BF002340681A46FFF744BFCE
:104D9000024B03225A60024A1A607047B8E60320A9
:104DA000AC580B0010B5044608462170FFF7D0FE42
:104DB00000236360204610BD054B02221A60054B9C
:104DC000054A9A600020C3E90000FFF701BF00BF59
:104DD000CCE60320C0E603200000FFFF02480023CA
:104DE0000360FFF72DBE00BFD0E60320F8B50646EE
:104DF0000D468F180024BD420CD0336815F8011BF6
:104E00009B6830469847031E01DB1C44F3E7002CE7
:104E100008BF1C462046F8BD13B50446084659B1E4
:104E20000191FFF7F3FC23680199DB6802462046F5
:104E300002B0BDE81040184702B010BD03689B687F
:104E4000184730B58BB00023012A8DF8243098BF65
:104E50000A2209AC0D46B1FBF2F101FB125303F03B
:104E6000FF03092B94BF30333733DBB2AA4204F877
:104E7000013DEFD92146FFF7CFFF0BB030BD000059
:104E8000014B024A1A607047D4E60320E0580B0039
:104E9000024B1A68024B1A60704700BF34E60320C9
:104EA000D8E60320014B00229A607047DCE603201D
:104EB000014B1860704700BF38E6032008B50B4B64
:104EC00043B100F063F903681B699847002801DDCE
:104ED000AFF30080064B43B100F0C4FB03681B69CD
:104EE0009847002801DDAFF3008008BD00000000F6
:104EF0000000000008B5FFF7E1FFFFF799FD014B47
:104F0000186008BD40E703200548064A064908B571
:104F1000121A00F013FC054B054A1A6008BD00BFC9
:104F200000F4032004F403206C5B0B0000F4032066
:104F30001E1C279A07B5002300931A466FF07701CD
:104F4000FFF760FE03B05DF804FB000007B543887F
:104F50000A2B08D0502B0BD1094B1B684BB103B067
:104F60005DF804EB1847FFF7E5FF03B05DF804FBBD
:104F7000002300931A466FF07701FFF743FEF4E732
:104F8000F0E6032010B512480021FFF7C5FE114BD3
:104F90001A68114B9A42114B0CBF012200221A7061
:104FA00001D0FFF7B1FFFFF73BFD044600F0DCFB4B
:104FB0000B4B13B12046AFF3008000210848FFF7E8
:104FC0008BFEBDE8104007480021FFF711BE00BF6F
:104FD000B14E0B0000F403201E1C279AECE60320C0
:104FE000000000004D4F0B00704710B5182104461B
:104FF000FFF751FC204610BDF0B5037D062B8DB0A8
:105000000E4600F104074FF0000412D000F108052D
:1050100015F8011D0A223046FFF713FFAF42044482
:1050200019D0002CF4D02E213046FFF707FF04449E
:10503000EEE72F236A4639460A208DF80040FFF735
:1050400007FD6846FFF7E2FB33680246DB68694606
:1050500030469847044620460DB0F0BD10B5054BCC
:105060000446112240F8043B002100F075FB204665
:1050700010BD00BF08590B000346074A10B543F89E
:10508000042B01F1100251F8044B43F8044B9142F8
:10509000F9D10A781A7010BD08590B0010B59DF8A7
:1050A000084044EA032343EA024242EA016104233E
:1050B0004160037510BD000007B5064B0360CB7857
:1050C00000938B784A780978FFF7E8FF03B05DF822
:1050D00004FB00BF08590B004174704770477047CC
:1050E00008B50021007CFFF75BFD40EAE07008BDD9
:1050F00008B50121007CFFF753FD40EAE07008BDD0
:1051000008B5007CFFF744FD20EAE07008BD08B553
:10511000007CFFF735FD20EAE07008BD13B50446BA
:10512000007C0191FFF734FD0028019901DC607CCF
:1051300020B1207CFFF73CFD20EAE07002B010BDFA
:10514000007CFFF73DBD10B514210446FFF7A3FB1B
:10515000204610BD10B54FF47A730446084600216E
:10516000C4E90113044B23600123207463741146C6
:10517000FFF7FEFC204610BD1C590B0010B5142291
:105180000446002100F0E8FA204610BD10B50F4C8F
:1051900088B003A8FFF7F2FF2178BFF35B8F11F00F
:1051A00001010FD120460191FFF777FB019948B12A
:1051B00003AA0748FFF7CEFF2046FFF773FB054819
:1051C00000F0B6FA024808B010BD00BFF4E60320B4
:1051D000F8E60320DD500B0070474174704708B5B6
:1051E000007CFFF76DFC20EAE07008BD08B5007C8C
:1051F000FFF73EFC20EAE07008BD08B5007CFFF731
:1052000047FC40EAE07008BD08B5007CFFF738FCB9
:1052100040EAE07008BD007CFFF742BC37B5457C32
:1052200004462DB1207C03B0BDE83040FFF718BC28
:10523000007C0191FFF744FC00280199F2DC28462C
:1052400003B030BD10B514210446FFF724FB2046FF
:1052500010BD000010B54FF47A730446084611469D
:105260000022C4E90123044B2360012320746374EA
:10527000FFF72EFC204610BD4C590B007047F8B5C7
:10528000064615460C468F18BC4206D0336814F803
:10529000011B9B6830469847F6E72846F8BD007C1E
:1052A0000022FFF71DBC007C0021FFF721BC007C21
:1052B0000021FFF725BC007C0021FFF729BC007C02
:1052C0000021FFF72DBC10B514210446FFF7E3FAC7
:1052D000204610BD38B5044615464FF47A730022B7
:1052E000C4E90123094B2174084623602946FFF7CE
:1052F00027FCBF3008D16B69DB0705D56868FFF76D
:10530000FBFCE868FFF7F8FC204638BD7C590B0031
:10531000002240681146FFF797BC00224068114602
:10532000FFF7B2BC002240681146FFF7BDBC4068E1
:105330000022FFF7B1BC4068002281F00101FFF7B5
:105340009BBC002340681A461946FFF78DBC00231A
:1053500040681A461946FFF77FBC00224068114694
:10536000FFF762BC406800220221FFF765BC002302
:1053700040681A46FFF750BC024B04225A60024AAA
:105380001A6070470CE70320A4590B000023406803
:105390001A46FFF741BC406800220221FFF74CBCCF
:1053A000002240681146FFF73FBC002240681146CA
:1053B000FFF74ABC002340681A461946FFF74CBC69
:1053C000002340681A461946FFF74EBC406800218A
:1053D000FFF772BC40680021FFF776BC40680022EE
:1053E00081F00101FFF748BC40680022FFF754BC80
:1053F000002240681146FFF757BC00224068114662
:10540000FFF742BC2DE9F04395B014460D46074620
:10541000FFF724FE00211C220DA8009100F09CF94A
:1054200040230C9320466B460CAA0021FFF7B8FAE4
:10543000044600284BD1024601216868FFF704FCAE
:105440000221804622466868FFF7FEFB009E8146E7
:105450002146002E3BD0002939D17368022B03D09E
:105460000A2B11D0F669F4E7B8F1000FFAD0716990
:1054700006A8043107ADFFF71FFE0FCD3C1D0FC47A
:105480002B6823704146EDE7B9F1000FEAD074694B
:10549000102201A800F060F906238DF8143001AD48
:1054A00004F108031834186859682A4603C20833FF
:1054B000A3421546F7D101A906A807ADFFF7DCFD09
:1054C0000FCD3C1D0FC42B6823704946CAE70098D6
:1054D000FFF75EFA384615B0BDE8F083024B034A89
:1054E0001A6000225A60704714E70320E0590B004D
:1054F000232813B502D9002002B010BDA0F10B0380
:10550000022B1AD8174C2178BFF35B8F11F00101E1
:105510000BD120460191FFF7C0F9019928B112483B
:10552000FFF740FC2046FFF7BDF90F4B1878FFF757
:1055300017FB0028DFD10120DEE7012809D800F0A1
:10554000D1F80021007CFFF7F3FA80F00100C0B22F
:10555000D2E709380128EED800F084F8007CFFF784
:10556000A7FAF2E71CE7032020E70320232838B539
:1055700004460D460AD8FF2908D0FFF7B9FF28B125
:1055800029462046BDE83840FFF71ABA38BD10B5A5
:105590000446FFF71DFA031FDBB2012B08D9204692
:1055A000FFF7A6FF20B12046BDE81040FFF718BA6C
:1055B000002010BD0D2810B504469CBF0E34A4B2C7
:1055C0002046FFF795FF50B103212046FFF7F0F981
:1055D000032804D12046BDE81040FFF711BA00208F
:1055E00010BD38B504460D46FFF782FFF0B1042127
:1055F0002046FFF7DDF9042805D1A9B22046BDE811
:105600003840FFF7F5B902212046FFF7D1F902280B
:105610000CD12046FFF7DCF9012801D0042805D180
:1056200029462046BDE83840FFF7F2B938BD70473B
:1056300038B5044614252A46002100F08DF825804F
:105640004025074925812846258200F06FF8044946
:105650006060284600F06AF8E060204638BD00BF70
:10566000145A0B0030B50E4D2978BFF35B8F11F043
:10567000010487B011D12846FFF70FF968B101A8DE
:10568000FFF7D6FF01AA21460648FFF7E3FD2846AB
:10569000FFF708F9044800F04BF8024807B030BDA6
:1056A00028E703202CE703202F560B00704700004B
:1056B00038B50A4B036001230446436108492020A2
:1056C00000F034F8202560600549A560284600F008
:1056D0002DF8C4E90305204638BD00BF18000100BD
:1056E000145A0B0030B50E4D2978BFF35B8F11F0C3
:1056F000010487B011D12846FFF7CFF868B168469A
:10570000FFF7D6FF6A4621460648FFF7E3FD284625
:10571000FFF7C8F8044800F00BF8024807B030BDA6
:1057200044E7032048E70320AD560B00FFF7B1B86C
:10573000002301461A46184600F044B80A44914234
:1057400000F1FF3300D1704710B511F8014B03F899
:10575000014F9142F9D110BD02440346934200D15A
:10576000704703F8011BF9E738B5104B1D68AB6BA8
:105770000446B3B91820FFF7B7FA0246A86320B968
:105780000B4B0C484221FFF7BFFA0B490B4BC0E90A
:1057900000130B4B83600B23838100210120C2E99E
:1057A0000401AB6B00221C615A6138BD38E603204E
:1057B000155A0B002C5A0B000E33CDAB34126DE68C
:1057C000ECDE05002DE9F843DFF8B8800646D8F88E
:1057D00000001F460D46914600F056F8254B1C6808
:1057E00034B9254C1C60254B13B11B68C4F88830B4
:1057F00063681F2B07DDD8F8000000F047F84FF072
:10580000FF30BDE8F8834EB3D4F8880088B91C4B4C
:1058100023B9D8F8000000F038F8F0E74FF48470AE
:10582000FFF762FA0028F4D00023C0E94033C4F83F
:105830008800636840F8239001229A4000EB8301BE
:10584000D0F800311343C0F80031022EC1F8807047
:1058500002BFD0F804311343C0F804316368D8F8AC
:1058600000005A1C0233626044F8235000F00EF826
:105870000020C6E7E8E703205CE703200000000003
:10588000E94C0B009CE6032070477047704700000E
:105890001D480B0059480B0081480B0085480B0040
:1058A000000000000000000000000000874D0B0019
:1058B0007D4D0B00734D0B00694D0B005D4D0B00D2
:1058C000514D0B00CD530B00D5530B00454D0B0034
:1058D0003D4D0B00334D0B00294D0B0005540B00C3
:1058E0006170700025592D256D2D25645425483A89
:1058F000254D3A2553257A0061736374696D6500FF
:105900000000000000000000F94F0B00E94F0B0001
:10591000EB4F0B000000000000000000DF500B0008
:1059200047510B001D510B00ED4D0B000F510B00AB
:10593000E1500B00F1500B0041510B0001510B00E5
:10594000D9500B000000000000000000D9510B00EE
:1059500045520B001D520B00ED4D0B00ED510B009D
:1059600009520B00FB510B0017520B00DB510B00CF
:10597000DF510B0000000000000000007D520B0012
:10598000C7520B009F520B007F520B00A7520B0017
:10599000AF520B00B7520B00BF520B0000000000CB
:1059A000000000006F530B0065530B005B530B00AE
:1059B00011530B004F530B0043530B00CD530B00FF
:1059C000D5530B0037530B002F530B0025530B00FF
:1059D0001B530B0005540B000000000000000000EA
:1059E0008D530B0097530B00A1530B00AB530B00CF
:1059F000B5530B00C1530B00CD530B00D5530B0017
:105A0000DD530B00E9530B00F1530B00FB530B006C
:105A100005540B00005245454E54206D616C6C6F6F
:105A20006320737563636565646564002F6D6E74D0
:105A30002F776F726B73706163652F776F726B7303
:105A4000706163652F4743432D31302D7069706558
:105A50006C696E652F6A656E6B696E732D47434383
:105A60002D31302D706970656C696E652D34385F2D
:105A700032303230313132345F31363036313830D5
:105A80003634312F7372632F6E65776C69622F6EB7
:105A900065776C69622F6C6962632F7374646C69DB
:105AA000622F72616E642E630000000069490B0072
:105AB000914D0B00B94D0B00DD4D0B00814E0B00DD
:105AC000914E0B00A54E0B0079530B00DD540B00DB
:105AD000040000001400000003000000474E5500C1
:105AE0002ACDDF6A2A188700514D0F0AFF5ECD5577
:045AF00019ADC5FA2D
:105AF400FF000000FF000000FF000000F8580B004A
:105B04003CE603200000000000000000000000004C
:105B14000000000000000000000000000000000081
:105B24000000000000000000000000000000000071
:105B34000000000000000000000000000000000061
:105B44000000000000000000000000000000000051
:105B54000000000000000000000000000000000041
:085B640000000000ECE7032043
:045B6C000000000035
:105B760000000102030405060708090A0B0C0D0EB6
:105B86000F101112131415161718191A1B1C1D1EA7
:045B96001F202800A4
:045B9A0078563412F3
:04000003B0004020E9
:00000001FF
