:02000002B0004C
:1040000000400B0092530B00000006000C0005025C
:084010000401B41400000000DB
:0440180088500B00C1
:10401C00034613F8012B002AFBD1181A01387047FC
:10402C0009480A49884208B505D0094A824202D09B
:10403C00121A00F03BFF0748074A0021121A00F041
:10404C0043FF014808BD00BF34E60320EC520B00CF
:10405C00ACE60320ACE60320F0E7032070B5074E76
:10406C00074C00F071FBA41BA4080025AC4200D146
:10407C0070BD56F8043B98470135F7E7A4520B0086
:10408C00C8520B0000F013B808B500F01FF8BDE8DB
:10409C00084000F011BB00F005BA00F00BBA007834
:1040AC00B0FA80F04009704701230370704708B5DF
:1040BC000121072000F03CFE0121062000F038FE13
:1040CC00BDE808400121032000F032BEF8B500F035
:1040DC0031FF154D154E164FFF2490FBF4F3C3EB37
:1040EC000323C01A286000F025FF90FBF4F3C3EB08
:1040FC000323C01A306000F01DFF90FBF4F4C4EBF6
:10410C000424041B64203C6000F0AAFA39680720E0
:10411C0000F01FFE3168062000F01BFE296803200A
:10412C00BDE8F84000F015BE34E6032038E6032065
:10413C003CE6032010B5074B074A9A600024C3E9FC
:10414C000044032000F01AF921460120BDE810407C
:10415C0000F024B9ACE603200000FFFF08B5024BC9
:10416C001B689B68019308BD6802030008B5024BED
:10417C001B68DB68019308BD6802030008B5024B9D
:10418C001B685B68019308BD2C02030008B5024B49
:10419C001B689B68019308BD2C02030008B5024BF9
:1041AC001B68DB68019308BD2C02030008B5024BA9
:1041BC001B689B6A019308BD2C02030008B5024BD7
:1041CC001B689B6F019308BD2C02030008B5024BC2
:1041DC001B685B68019308BD1802030008B5024B0D
:1041EC001B685B69019308BD1802030008B5024BFC
:1041FC001B685B6C019308BD4802030008B5024BB9
:10420C001B685B69019308BD6402030008B5024B8F
:10421C001B68DB68019308BD3C02030008B5024B28
:10422C001B681B69019308BD3C02030008B5024BD7
:10423C001B685B69019308BD3C02030008B5024B87
:10424C001B689B69019308BD3C02030008B5024B37
:10425C001B68DB69019308BD3C02030008B5024BE7
:10426C001B681B6A019308BD3C02030008B5024B96
:10427C001B689B6A019308BD3C02030008B5024B06
:10428C001B681B6C019308BD3C02030008B5024B74
:10429C001B681B6A019308BD2802030008B5024B7A
:1042AC001B685B6A019308BD2802030008B5024B2A
:1042BC001B689B6A019308BD2802030008B5024BDA
:1042CC001B68DB6A019308BD2802030008B5024B8A
:1042DC001B681B6B019308BD2802030008B5024B39
:1042EC001B685B6B019308BD2802030008B5024BE9
:1042FC001B681B6C019308BD2802030008B5024B18
:10430C001B68DB69019308BD3002030008B5024B42
:10431C001B681B6A019308BD3002030008B5024BF1
:10432C001B681B68019308BD4C02030008B5024BC7
:10433C001B681B69019308BD4C02030008B5024BB6
:10434C001B685B69019308BD4C02030008B5024B66
:10435C001B689B69019308BD4C02030008B5024B16
:10436C001B68DB69019308BD4C02030008B5024BC6
:10437C001B681B6A019308BD4C02030008B5024B75
:10438C001B685B68019308BD2002030008B5024B53
:10439C001B685B69019308BD2002030008B5024B42
:1043AC001B68DB6A019308BD2002030008B5034BB0
:1043BC001B68D3F88830019308BD0000200203006D
:1043CC0008B5034B1B68D3F89430019308BD00006B
:1043DC002002030008B5024B1B685B68019308BD03
:1043EC004002030008B5024B1B689B68019308BD93
:1043FC004002030008B5024B1B68DB68019308BD43
:10440C004002030008B5024B1B681B69019308BDF1
:10441C004002030008B5024B1B685B69019308BDA1
:10442C004002030008B5024B1B689B69019308BD51
:10443C004002030008B5024B1B68DB69019308BD01
:10444C004002030008B5024B1B681B6A019308BDB0
:10445C004002030008B5024B1B681B6B019308BD9F
:10446C004002030008B5024B1B685B6B019308BD4F
:10447C004002030008B5024B1B681B6C019308BD7E
:10448C004002030008B5024B1B685B6C019308BD2E
:10449C004002030008B5024B1B68DB6B019308BD9F
:1044AC004402030008B5024B1B681B68019308BD4E
:1044BC001C02030008B5024B1B685B68019308BD26
:1044CC001C02030008B5024B1B681B6C019308BD52
:1044DC001C02030008B5024B1B685B6C019308BD02
:1044EC001C020300002240681146FFF7ABBF0022FC
:1044FC0040681146FFF7B6BF40680022FFF7AABF1D
:10450C004068002281F00101FFF794BF002340684E
:10451C001A461946FFF786BF002340681A4619460B
:10452C00FFF778BF002240681146FFF76BBF0022EF
:10453C0040681146FFF756BF406800220221FFF782
:10454C0059BF002340681A46FFF744BF024B0322B1
:10455C005A60024A1A607047B8E60320A4500B0058
:10456C0010B5044608462170FFF7C8FE00236360AF
:10457C00204610BD054B02221A60054B054A9A6075
:10458C000020C3E90000FFF7F9BE00BFCCE6032012
:10459C00C0E603200000FFFF024800230360FFF782
:1045AC0025BE00BFD0E60320F8B506460D468F1891
:1045BC000024BD420CD0336815F8011B9B683046B3
:1045CC009847031E01DB1C44F3E7002C08BF1C4674
:1045DC002046F8BD13B50446084659B10191FFF7C2
:1045EC0017FD23680199DB680246204602B0BDE83E
:1045FC001040184702B010BD03689B68184730B5CF
:10460C008BB00023012A8DF8243098BF0A2209AC04
:10461C000D46B1FBF2F101FB125303F0FF03092B22
:10462C0094BF30333733DBB2AA4204F8013DEFD9E3
:10463C002146FFF7CFFF0BB030BD0000014B024A03
:10464C001A607047D4E60320D8500B00024B1A684E
:10465C00024B1A60704700BF40E60320D8E60320E7
:10466C000021FFF793BE0000014B00229A607047B7
:10467C00DCE60320014B1860704700BF44E60320C2
:10468C0008B50B4B43B100F063F903681B699847FD
:10469C00002801DDAFF30080064B43B100F09AFB1C
:1046AC0003681B699847002801DDAFF3008008BD43
:1046BC00000000000000000008B5FFF7E1FFFFF765
:1046CC008DFD014B186008BD40E703200548064AE4
:1046DC00064908B5121A00F0E9FB054B054A1A60A9
:1046EC0008BD00BF00F4032004F4032064530B0046
:1046FC0000F403201E1C279A07B5002300931A46CA
:10470C006FF07701FFF75CFE03B05DF804FB00006F
:10471C0007B543880A2B08D0502B0BD1094B1B68CB
:10472C004BB103B05DF804EB1847FFF7E5FF03B09E
:10473C005DF804FB002300931A466FF07701FFF736
:10474C003FFEF4E7F0E6032010B512480021FFF716
:10475C00C1FE114B1A68114B9A42114B0CBF01222E
:10476C0000221A7001D0FFF7B1FFFFF72FFD0446AE
:10477C0000F0B2FB0B4B13B12046AFF300800021CD
:10478C000848FFF787FEBDE8104007480021FFF7F7
:10479C000DBE00BF81460B0000F403201E1C279A9F
:1047AC00ECE60320000000001D470B00704710B51D
:1047BC0018210446FFF771FC204610BDF0B5037DAF
:1047CC00062B8DB00E4600F104074FF0000412D0FA
:1047DC0000F1080515F8011D0A223046FFF70FFFFE
:1047EC00AF42044419D0002CF4D02E213046FFF7F0
:1047FC0003FF0444EEE72F236A4639460A208DF85E
:10480C000040FFF7FBFC6846FFF702FC33680246EA
:10481C00DB68694630469847044620460DB0F0BD2B
:10482C0010B5054B0446112240F8043B002100F062
:10483C004BFB204610BD00BF00510B000346074A3E
:10484C0010B543F8042B01F1100251F8044B43F856
:10485C00044B9142F9D10A781A7010BD00510B002B
:10486C0010B59DF8084044EA032343EA024242EAA9
:10487C00016104234160037510BD000007B5064BB0
:10488C000360CB7800938B784A780978FFF7E8FFC0
:10489C0003B05DF804FB00BF00510B00417470477E
:1048AC007047704708B50021007CFFF74FFD40EAC8
:1048BC00E07008BD08B50121007CFFF747FD40EA18
:1048CC00E07008BD08B5007CFFF738FD20EAE07009
:1048DC0008BD08B5007CFFF729FD20EAE07008BD93
:1048EC0013B50446007C0191FFF728FD00280199BF
:1048FC0001DC607C20B1207CFFF730FD20EAE07009
:10490C0002B010BD007CFFF731BD10B51421044678
:10491C00FFF7C3FB204610BD10B54FF47A73044665
:10492C0008460021C4E90113044B236001232074C1
:10493C0063741146FFF7F2FC204610BD14510B00B6
:10494C0010B514220446002100F0BEFA204610BD1A
:10495C0010B50F4C88B003A8FFF7F2FF2178BFF316
:10496C005B8F11F001010FD120460191FFF797FBEE
:10497C00019948B103AA0748FFF7CEFF2046FFF77D
:10498C0093FB054800F08CFA024808B010BD00BF3C
:10499C00F4E60320F8E60320AD480B0070474174A1
:1049AC00704708B5007CFFF761FC20EAE07008BD99
:1049BC0008B5007CFFF732FC20EAE07008BD08B5B2
:1049CC00007CFFF73BFC40EAE07008BD08B5007CBA
:1049DC00FFF72CFC40EAE07008BD007CFFF736BC0A
:1049EC0037B5457C04462DB1207C03B0BDE8304082
:1049FC00FFF70CBC007C0191FFF738FC00280199F3
:104A0C00F2DC284603B030BD10B514210446FFF784
:104A1C0044FB204610BD000010B54FF47A730446D9
:104A2C00084611460022C4E90123044B23600123EC
:104A3C0020746374FFF722FC204610BD44510B0018
:104A4C007047F8B5064615460C468F18BC4206D082
:104A5C00336814F8011B9B6830469847F6E72846E4
:104A6C00F8BD007C0022FFF711BC007C0021FFF791
:104A7C0015BC007C0021FFF719BC007C0021FFF75E
:104A8C001DBC007C0021FFF721BC10B5142104468D
:104A9C00FFF703FB204610BD38B5044615464FF40E
:104AAC007A730022C4E90123094B21740846236060
:104ABC002946FFF71BFCBF3008D16B69DB0705D516
:104ACC006868FFF7F7FCE868FFF7F4FC204638BD90
:104ADC0074510B00002240681146FFF793BC002272
:104AEC0040681146FFF7AEBC002240681146FFF744
:104AFC00B9BC40680022FFF7ADBC4068002281F0D1
:104B0C000101FFF797BC002340681A461946FFF7CE
:104B1C0089BC002340681A461946FFF77BBC00226B
:104B2C0040681146FFF75EBC406800220221FFF787
:104B3C0061BC002340681A46FFF74CBC024B0422B0
:104B4C005A60024A1A6070470CE703209C510B0014
:104B5C00002340681A46FFF73DBC40680022022142
:104B6C00FFF748BC002240681146FFF73BBC00220F
:104B7C0040681146FFF746BC002340681A461946A8
:104B8C00FFF748BC002340681A461946FFF74ABC99
:104B9C0040680021FFF76EBC40680021FFF772BC33
:104BAC004068002281F00101FFF744BC40680022FC
:104BBC00FFF750BC002240681146FFF753BC00229F
:104BCC0040681146FFF73EBC2DE9F04395B0144602
:104BDC000D460746FFF724FE00211C220DA800916C
:104BEC0000F072F940230C9320466B460CAA00216E
:104BFC00FFF7BCFA044600284BD102460121686835
:104C0C00FFF700FC0221804622466868FFF7FAFB9A
:104C1C00009E81462146002E3BD0002939D1736875
:104C2C00022B03D00A2B11D0F669F4E7B8F1000F70
:104C3C00FAD0716906A8043107ADFFF71FFE0FCD3E
:104C4C003C1D0FC42B6823704146EDE7B9F1000FF2
:104C5C00EAD07469102201A800F036F906238DF809
:104C6C00143001AD04F108031834186859682A4649
:104C7C0003C20833A3421546F7D101A906A807AD14
:104C8C00FFF7DCFD0FCD3C1D0FC42B68237049468C
:104C9C00CAE70098FFF762FA384615B0BDE8F08312
:104CAC00024B034A1A6000225A60704714E7032033
:104CBC00D8510B00232813B502D9002002B010BD27
:104CCC00A0F10B03022B1AD8174C2178BFF35B8F82
:104CDC0011F001010BD120460191FFF7E0F9019988
:104CEC0028B11248FFF73CFC2046FFF7DDF90F4BCB
:104CFC001878FFF70BFB0028DFD10120DEE7012835
:104D0C0009D800F0A7F80021007CFFF7E7FA80F043
:104D1C000100C0B2D2E709380128EED800F05AF8E9
:104D2C00007CFFF79BFAF2E71CE7032020E7032047
:104D3C00232838B504460D460AD8FF2908D0FFF7BA
:104D4C00B9FF28B129462046BDE83840FFF71EBA06
:104D5C0038BD38B504460D46FFF7ACFFF0B1042161
:104D6C002046FFF70BFA042805D1A9B22046BDE86E
:104D7C003840FFF71BBA02212046FFF7FFF9022843
:104D8C000CD12046FFF70AFA012801D0042805D1DE
:104D9C0029462046BDE83840FFF710BA38BD7047A9
:104DAC0038B5044614252A46002100F08DF82580DC
:104DBC004025074925812846258200F06FF80449D3
:104DCC006060284600F06AF8E060204638BD00BFFD
:104DDC000C520B0030B50E4D2978BFF35B8F11F0E0
:104DEC00010487B011D12846FFF759F968B101A821
:104DFC00FFF7D6FF01AA21460648FFF70DFE28460D
:104E0C00FFF752F9044800F04BF8024807B030BDE8
:104E1C0028E703202CE70320AB4D0B007047000064
:104E2C0038B50A4B0360012304464361084920202E
:104E3C0000F034F8202560600549A560284600F094
:104E4C002DF8C4E90305204638BD00BF1800010049
:104E5C000C520B0030B50E4D2978BFF35B8F11F05F
:104E6C00010487B011D12846FFF719F968B16846DB
:104E7C00FFF7D6FF6A4621460648FFF70DFE284687
:104E8C00FFF712F9044800F00BF8024807B030BDE8
:104E9C0044E7032048E70320294E0B00FFF7FBB83B
:104EAC00002301461A46184600F082B80A44914283
:104EBC0000F1FF3300D1704710B511F8014B03F826
:104ECC00014F9142F9D110BD02440346934200D1E7
:104EDC00704703F8011BF9E738B5104B1D68AB6B35
:104EEC000446B3B91820FFF7DDFA0246A86320B9CF
:104EFC000B4B0C484221FFF7E5FA0B490B4BC0E971
:104F0C0000130B4B83600B23838100210120C2E92A
:104F1C000401AB6B00221C615A6138BD44E60320CE
:104F2C000D520B0024520B000E33CDAB34126DE638
:104F3C00ECDE0500164B10B51C68A36BB3B918203A
:104F4C00FFF7B0FAA06328B90246124B12484E2163
:104F5C00FFF7B8FA114A124BC0E90023114B8360DA
:104F6C000B23838101220023C0E90423A46B0E4A86
:104F7C00206963690D49424301FB0322A0FB010137
:104F8C00431C42EB0100C4E9043020F0004010BD8A
:104F9C0044E603200D520B0024520B000E33CDAB14
:104FAC0034126DE6ECDE05002DF451582D7F954C36
:104FBC002DE9F843DFF8B8800646D8F800001F4604
:104FCC000D46914600F056F8254B1C6834B9254C1B
:104FDC001C60254B13B11B68C4F8883063681F2B09
:104FEC0007DDD8F8000000F047F84FF0FF30BDE8BF
:104FFC00F8834EB3D4F8880088B91C4B23B9D8F881
:10500C00000000F038F8F0E74FF48470FFF74AFA2C
:10501C000028F4D00023C0E94033C4F8880063684A
:10502C0040F8239001229A4000EB8301D0F8003124
:10503C001343C0F80031022EC1F8807002BFD0F8C3
:10504C0004311343C0F804316368D8F800005A1CCB
:10505C000233626044F8235000F00EF80020C6E7DB
:10506C00E8E703205CE7032000000000B1440B00DC
:10507C00A8E6032070477047704700002D400B00D6
:10508C0069400B0091400B0095400B0000000000A4
:10509C0000000000000000004F450B0045450B00D0
:1050AC003B450B0031450B0025450B0019450B000A
:1050BC009D4B0B00A54B0B000D450B0005450B0044
:1050CC00FB440B00F1440B00D54B0B0061707000DE
:1050DC0025592D256D2D25645425483A254D3A2505
:1050EC0053257A0061736374696D650000000000DC
:1050FC0000000000C9470B00B9470B00BB470B0071
:10510C000000000000000000AF480B0017490B0026
:10511C00ED480B00B5450B00DF480B00B1480B0008
:10512C00C1480B0011490B00D1480B00A9480B00DA
:10513C000000000000000000A9490B00154A0B00FC
:10514C00ED490B00B5450B00BD490B00D9490B00CF
:10515C00CB490B00E7490B00AB490B00AF490B00E7
:10516C0000000000000000004D4A0B00974A0B00A5
:10517C006F4A0B004F4A0B00774A0B007F4A0B001B
:10518C00874A0B008F4A0B00000000000000000053
:10519C003F4B0B00354B0B002B4B0B00E14A0B002C
:1051AC001F4B0B00134B0B009D4B0B00A54B0B0027
:1051BC00074B0B00FF4A0B00F54A0B00EB4A0B00A8
:1051CC00D54B0B0000000000000000005D4B0B00F5
:1051DC00674B0B00714B0B007B4B0B00854B0B0093
:1051EC00914B0B009D4B0B00A54B0B00AD4B0B00DB
:1051FC00B94B0B00C14B0B00CB4B0B00D54B0B0031
:10520C00005245454E54206D616C6C6F6320737574
:10521C0063636565646564002F6D6E742F776F72C0
:10522C006B73706163652F776F726B7370616365FD
:10523C002F4743432D31302D706970656C696E6555
:10524C002F6A656E6B696E732D4743432D31302D7C
:10525C00706970656C696E652D34385F3230323030
:10526C00313132345F313630363138303634312FDB
:10527C007372632F6E65776C69622F6E65776C69DC
:10528C00622F6C6962632F7374646C69622F726134
:10529C006E642E630000000041410B0059450B0069
:1052AC0081450B00A5450B0049460B0059460B00E8
:0C52BC0075460B00494B0B00AD4C0B007D
:1052C800040000001400000003000000474E5500D1
:1052D80042656F21FA25AB15BFD52F57D323CC4D87
:0452E80077E4ECCBB0
:1052EC00FF000000FF000000FF000000F0500B006A
:1052FC0048E6032000000000000000000000000051
:10530C000000000000000000000000000000000091
:10531C000000000000000000000000000000000081
:10532C000000000000000000000000000000000071
:10533C000000000000000000000000000000000061
:10534C000000000000000000000000000000000051
:08535C0000000000ECE7032053
:045364000000000045
:10536E0000000102030405060708090A0B0C0D0EC6
:10537E000F101112131415161718191A1B1C1D1EB7
:04538E001F202800B4
:045392007856341203
:04000003B000401CED
:00000001FF
